{
  "contractName": "Greeting",
  "abi": [
    {
      "anonymous": false,
      "inputs": [
        {
          "indexed": false,
          "internalType": "uint256",
          "name": "data1",
          "type": "uint256"
        },
        {
          "indexed": true,
          "internalType": "uint256",
          "name": "data2",
          "type": "uint256"
        }
      ],
      "name": "DataStored",
      "type": "event"
    },
    {
      "inputs": [],
      "name": "greeting",
      "outputs": [
        {
          "internalType": "string",
          "name": "",
          "type": "string"
        }
      ],
      "stateMutability": "view",
      "type": "function",
      "constant": true
    },
    {
      "inputs": [],
      "name": "sayHello",
      "outputs": [
        {
          "internalType": "string",
          "name": "",
          "type": "string"
        }
      ],
      "stateMutability": "view",
      "type": "function",
      "constant": true
    },
    {
      "inputs": [
        {
          "internalType": "string",
          "name": "_greeting",
          "type": "string"
        }
      ],
      "name": "updateGreeting",
      "outputs": [],
      "stateMutability": "nonpayable",
      "type": "function"
    },
    {
      "inputs": [
        {
          "internalType": "uint256",
          "name": "_data1",
          "type": "uint256"
        },
        {
          "internalType": "uint256",
          "name": "_data2",
          "type": "uint256"
        }
      ],
      "name": "storeData",
      "outputs": [],
      "stateMutability": "nonpayable",
      "type": "function"
    },
    {
      "inputs": [
        {
          "internalType": "uint256",
          "name": "amount",
          "type": "uint256"
        }
      ],
      "name": "withdraw",
      "outputs": [],
      "stateMutability": "nonpayable",
      "type": "function"
    }
  ],
  "bytecode": "0x60806040526040518060400160405280600581526020017f68656c6c6f0000000000000000000000000000000000000000000000000000008152506000908051906020019061004f929190610062565b5034801561005c57600080fd5b50610165565b82805461006e90610134565b90600052602060002090601f01602090048101928261009057600085556100d7565b82601f106100a957805160ff19168380011785556100d7565b828001600101855582156100d7579182015b828111156100d65782518255916020019190600101906100bb565b5b5090506100e491906100e8565b5090565b5b808211156101015760008160009055506001016100e9565b5090565b7f4e487b7100000000000000000000000000000000000000000000000000000000600052602260045260246000fd5b6000600282049050600182168061014c57607f821691505b60208210810361015f5761015e610105565b5b50919050565b610752806101746000396000f3fe608060405234801561001057600080fd5b50600436106100575760003560e01c80632867cc441461005c5780632e1a7d4d14610078578063711c1c4a14610094578063ef5fb05b146100b0578063ef690cc0146100ce575b600080fd5b61007660048036038101906100719190610435565b6100ec565b005b610092600480360381019061008d91906104b8565b610102565b005b6100ae60048036038101906100a991906104e5565b6101b5565b005b6100b8610203565b6040516100c591906105be565b60405180910390f35b6100d6610295565b6040516100e391906105be565b60405180910390f35b8181600091906100fd929190610323565b505050565b6000803373ffffffffffffffffffffffffffffffffffffffff168360405161012990610611565b60006040518083038185875af1925050503d8060008114610166576040519150601f19603f3d011682016040523d82523d6000602084013e61016b565b606091505b5091509150816101b0576040517f08c379a00000000000000000000000000000000000000000000000000000000081526004016101a790610672565b60405180910390fd5b505050565b81600181905550806002819055506002547fd3b6c594451bea3204716c9e34653b521ace3900157ba74eabc1390c20bb8c986001546040516101f791906106a1565b60405180910390a25050565b606060008054610212906106eb565b80601f016020809104026020016040519081016040528092919081815260200182805461023e906106eb565b801561028b5780601f106102605761010080835404028352916020019161028b565b820191906000526020600020905b81548152906001019060200180831161026e57829003601f168201915b5050505050905090565b600080546102a2906106eb565b80601f01602080910402602001604051908101604052809291908181526020018280546102ce906106eb565b801561031b5780601f106102f05761010080835404028352916020019161031b565b820191906000526020600020905b8154815290600101906020018083116102fe57829003601f168201915b505050505081565b82805461032f906106eb565b90600052602060002090601f0160209004810192826103515760008555610398565b82601f1061036a57803560ff1916838001178555610398565b82800160010185558215610398579182015b8281111561039757823582559160200191906001019061037c565b5b5090506103a591906103a9565b5090565b5b808211156103c25760008160009055506001016103aa565b5090565b600080fd5b600080fd5b600080fd5b600080fd5b600080fd5b60008083601f8401126103f5576103f46103d0565b5b8235905067ffffffffffffffff811115610412576104116103d5565b5b60208301915083600182028301111561042e5761042d6103da565b5b9250929050565b6000806020838503121561044c5761044b6103c6565b5b600083013567ffffffffffffffff81111561046a576104696103cb565b5b610476858286016103df565b92509250509250929050565b6000819050919050565b61049581610482565b81146104a057600080fd5b50565b6000813590506104b28161048c565b92915050565b6000602082840312156104ce576104cd6103c6565b5b60006104dc848285016104a3565b91505092915050565b600080604083850312156104fc576104fb6103c6565b5b600061050a858286016104a3565b925050602061051b858286016104a3565b9150509250929050565b600081519050919050565b600082825260208201905092915050565b60005b8381101561055f578082015181840152602081019050610544565b8381111561056e576000848401525b50505050565b6000601f19601f8301169050919050565b600061059082610525565b61059a8185610530565b93506105aa818560208601610541565b6105b381610574565b840191505092915050565b600060208201905081810360008301526105d88184610585565b905092915050565b600081905092915050565b50565b60006105fb6000836105e0565b9150610606826105eb565b600082019050919050565b600061061c826105ee565b9150819050919050565b7f5472616e73666572206661696c65642e00000000000000000000000000000000600082015250565b600061065c601083610530565b915061066782610626565b602082019050919050565b6000602082019050818103600083015261068b8161064f565b9050919050565b61069b81610482565b82525050565b60006020820190506106b66000830184610692565b92915050565b7f4e487b7100000000000000000000000000000000000000000000000000000000600052602260045260246000fd5b6000600282049050600182168061070357607f821691505b602082108103610716576107156106bc565b5b5091905056fea2646970667358221220254fc0125cd1d99ef35828506cb04b72975eedfa019c437949451947526f14fd64736f6c634300080d0033",
  "immutableReferences": {},
  "source": "// SPDX-License-Identifier: MIT\r\npragma solidity ^0.8.13;\r\n\r\ncontract Greeting {\r\n    string public greeting = \"hello\";\r\n     event DataStored(uint256 data1, uint256 indexed data2);\r\n   uint256 data1;\r\n   uint256 data2;\r\n    function sayHello() external view returns (string memory) {\r\n        return greeting;\r\n    }\r\n\r\n    function updateGreeting(string calldata _greeting) external {\r\n        greeting = _greeting;\r\n    }\r\n\r\n   function storeData(uint256 _data1, uint256 _data2) external {\r\n      data1 = _data1;\r\n      data2 = _data2;\r\n      emit DataStored(data1, data2);\r\n   }\r\n    function withdraw(uint256 amount) external {\r\n        // This forwards all available gas. Be sure to check the return value!\r\n         (bool sent, bytes memory data)  = msg.sender.call{value:amount}(\"\");\r\n        require(sent, \"Transfer failed.\");\r\n    }\r\n}\r\n",
  "sourcePath": "E:\\repos\\blockchain\\MetaCoin\\contracts\\Greeting.sol",
  "compiler": {
    "name": "solc",
    "version": "0.8.13+commit.abaa5c0e.Emscripten.clang"
  },
  "schemaVersion": "3.4.11",
  "updatedAt": "2023-08-28T05:46:09.879Z",
  "networkType": "ethereum",
  "devdoc": {
    "kind": "dev",
    "methods": {},
    "version": 1
  },
  "userdoc": {
    "kind": "user",
    "methods": {},
    "version": 1
  }
}