{
  "contractName": "Greeting",
  "abi": [
    {
      "anonymous": false,
      "inputs": [
        {
          "indexed": false,
          "internalType": "uint256",
          "name": "data1",
          "type": "uint256"
        },
        {
          "indexed": true,
          "internalType": "uint256",
          "name": "data2",
          "type": "uint256"
        }
      ],
      "name": "DataStored",
      "type": "event"
    },
    {
      "inputs": [],
      "name": "greeting",
      "outputs": [
        {
          "internalType": "string",
          "name": "",
          "type": "string"
        }
      ],
      "stateMutability": "view",
      "type": "function",
      "constant": true
    },
    {
      "inputs": [],
      "name": "sayHello",
      "outputs": [
        {
          "internalType": "string",
          "name": "",
          "type": "string"
        }
      ],
      "stateMutability": "view",
      "type": "function",
      "constant": true
    },
    {
      "inputs": [
        {
          "internalType": "string",
          "name": "_greeting",
          "type": "string"
        }
      ],
      "name": "updateGreeting",
      "outputs": [],
      "stateMutability": "nonpayable",
      "type": "function"
    },
    {
      "inputs": [
        {
          "internalType": "uint256",
          "name": "_data1",
          "type": "uint256"
        },
        {
          "internalType": "uint256",
          "name": "_data2",
          "type": "uint256"
        }
      ],
      "name": "storeData",
      "outputs": [],
      "stateMutability": "nonpayable",
      "type": "function"
    }
  ],
  "bytecode": "0x60806040526040518060400160405280600581526020017f68656c6c6f0000000000000000000000000000000000000000000000000000008152506000908051906020019061004f929190610062565b5034801561005c57600080fd5b50610165565b82805461006e90610134565b90600052602060002090601f01602090048101928261009057600085556100d7565b82601f106100a957805160ff19168380011785556100d7565b828001600101855582156100d7579182015b828111156100d65782518255916020019190600101906100bb565b5b5090506100e491906100e8565b5090565b5b808211156101015760008160009055506001016100e9565b5090565b7f4e487b7100000000000000000000000000000000000000000000000000000000600052602260045260246000fd5b6000600282049050600182168061014c57607f821691505b60208210810361015f5761015e610105565b5b50919050565b610599806101746000396000f3fe608060405234801561001057600080fd5b506004361061004c5760003560e01c80632867cc4414610051578063711c1c4a1461006d578063ef5fb05b14610089578063ef690cc0146100a7575b600080fd5b61006b6004803603810190610066919061035b565b6100c5565b005b610087600480360381019061008291906103de565b6100db565b005b610091610129565b60405161009e91906104b7565b60405180910390f35b6100af6101bb565b6040516100bc91906104b7565b60405180910390f35b8181600091906100d6929190610249565b505050565b81600181905550806002819055506002547fd3b6c594451bea3204716c9e34653b521ace3900157ba74eabc1390c20bb8c9860015460405161011d91906104e8565b60405180910390a25050565b60606000805461013890610532565b80601f016020809104026020016040519081016040528092919081815260200182805461016490610532565b80156101b15780601f10610186576101008083540402835291602001916101b1565b820191906000526020600020905b81548152906001019060200180831161019457829003601f168201915b5050505050905090565b600080546101c890610532565b80601f01602080910402602001604051908101604052809291908181526020018280546101f490610532565b80156102415780601f1061021657610100808354040283529160200191610241565b820191906000526020600020905b81548152906001019060200180831161022457829003601f168201915b505050505081565b82805461025590610532565b90600052602060002090601f01602090048101928261027757600085556102be565b82601f1061029057803560ff19168380011785556102be565b828001600101855582156102be579182015b828111156102bd5782358255916020019190600101906102a2565b5b5090506102cb91906102cf565b5090565b5b808211156102e85760008160009055506001016102d0565b5090565b600080fd5b600080fd5b600080fd5b600080fd5b600080fd5b60008083601f84011261031b5761031a6102f6565b5b8235905067ffffffffffffffff811115610338576103376102fb565b5b60208301915083600182028301111561035457610353610300565b5b9250929050565b60008060208385031215610372576103716102ec565b5b600083013567ffffffffffffffff8111156103905761038f6102f1565b5b61039c85828601610305565b92509250509250929050565b6000819050919050565b6103bb816103a8565b81146103c657600080fd5b50565b6000813590506103d8816103b2565b92915050565b600080604083850312156103f5576103f46102ec565b5b6000610403858286016103c9565b9250506020610414858286016103c9565b9150509250929050565b600081519050919050565b600082825260208201905092915050565b60005b8381101561045857808201518184015260208101905061043d565b83811115610467576000848401525b50505050565b6000601f19601f8301169050919050565b60006104898261041e565b6104938185610429565b93506104a381856020860161043a565b6104ac8161046d565b840191505092915050565b600060208201905081810360008301526104d1818461047e565b905092915050565b6104e2816103a8565b82525050565b60006020820190506104fd60008301846104d9565b92915050565b7f4e487b7100000000000000000000000000000000000000000000000000000000600052602260045260246000fd5b6000600282049050600182168061054a57607f821691505b60208210810361055d5761055c610503565b5b5091905056fea26469706673582212200f318aaba1a9407af8b2ec9b8a2bbe68ff4db2616cdb6a767399d06e8c59415664736f6c634300080d0033",
  "immutableReferences": {},
  "source": "// SPDX-License-Identifier: MIT\r\npragma solidity ^0.8.13;\r\n\r\ncontract Greeting {\r\n    string public greeting = \"hello\";\r\n     event DataStored(uint256 data1, uint256 indexed data2);\r\n   uint256 data1;\r\n   uint256 data2;\r\n    function sayHello() external view returns (string memory) {\r\n        return greeting;\r\n    }\r\n\r\n    function updateGreeting(string calldata _greeting) external {\r\n        greeting = _greeting;\r\n    }\r\n\r\n   function storeData(uint256 _data1, uint256 _data2) external {\r\n      data1 = _data1;\r\n      data2 = _data2;\r\n      emit DataStored(data1, data2);\r\n   }\r\n}",
  "sourcePath": "E:\\repos\\blockchain\\MetaCoin\\contracts\\Greeting.sol",
  "compiler": {
    "name": "solc",
    "version": "0.8.13+commit.abaa5c0e.Emscripten.clang"
  },
  "schemaVersion": "3.4.11",
  "updatedAt": "2023-08-25T01:55:41.033Z",
  "networkType": "ethereum",
  "devdoc": {
    "kind": "dev",
    "methods": {},
    "version": 1
  },
  "userdoc": {
    "kind": "user",
    "methods": {},
    "version": 1
  }
}